:02000002D0002C
:1040000000400D00649C0D00000006000C0005013E
:084010000401BD0B00000000DB
:0440180094870D007C
:1040200009480A49884208B505D0094A824202D0A7
:10403000121A04F0CBFA0748074A0021121A04F0BA
:10404000D3FA014808BD00BF0CE50320D49B0D0046
:1040500074E5032074E50320F0E7032070B5074EF4
:10406000074C02F0E1FDA41BA4080025A54200D1E5
:1040700070BD56F8043B98470135F7E7A09B0D004B
:10408000C49B0D0000F010BC08B500F019FDBDE8A0
:10409000084002F08BBD02F027BA02F025BA02F008
:1040A0002BBA000008B5034A00210C2002F070F979
:1040B000FEE700BF81600D000078B0FA80F0400993
:1040C000704701230370704737B5044608460191D5
:1040D00004F0C0FA6368A268451CE818904208D84A
:1040E000206801992A46184404F070FA6068284450
:1040F000606003B030BD000038B584690A4B0360CE
:1041000005467CB16368013B63605BB92368204668
:104110009B689847A368013BA3601BB923682046AE
:10412000DB689847284638BDEC980D0008B501F0CB
:10413000AFFF034B1860BDE8084002F0C5B900BFEF
:10414000D4E7032003682BB14268934202D2184699
:1041500004F026BA0020704738B50568044645B11A
:1041600043689D4205D2284604F074FA01300544A4
:104170002560204638BD000038B504460B46D0E91E
:1041800001012568044A091A284402F0BDF9636850
:1041900001300344636038BDA8870D0038B504467C
:1041A0000B46D0E901012568044A091A284402F0A7
:1041B000ABF9636801300344636038BDAB870D0021
:1041C00008B500234377006803F058F9BDE80840BC
:1041D00001F0E0BE2DE9F04301EB02098FB0494543
:1041E000CDE9051980460D46164680F0928005A857
:1041F0000F88FFF7B1FF0368994540F28A8005A850
:10420000FFF7A0FF47F276239F42C4B200F0A980D7
:1042100027D847F261239F427ED047F264239F4212
:1042200042D046F670539F4228D1634E634FDFF869
:10423000A081059B99456CD905A8FFF783FFC4B2FF
:1042400005A8FFF789FF059D3146284604F0F8F9D7
:104250000146E0B9204603F019FB05A8FFF77CFFF3
:10426000E7E747F264739F423FD047F276739F427D
:1042700000F0878047F261739F425FD00023CDE951
:10428000013302220092B8F81A20194629E0394673
:10429000284604F0D5F928B14146284604F0D0F963
:1042A0000028DAD10121D5E70AAB4549079307A8D1
:1042B00010230025CDE90853FFF706FF07A8214684
:1042C000FFF75AFF204603F00BFB014607A8FFF754
:1042D00065FF089BCDE90155013B0093079B2A46EA
:1042E0001421404600F00EFB13E005A8FFF734FF51
:1042F000036899450DD9A4B20121204603F0C6FAFE
:1043000005A8FFF71FFF011E18BF0121204603F07B
:10431000CEFA0FB0BDE8F0830AAB079307A81023CD
:1043200028490025CDE90853FFF7CEFE07A821460E
:10433000FFF722FF204603F0E6FAC6E705A8FFF7DD
:104340000BFF03689945E4D9A4B20121204603F08C
:104350009DFA05A8FFF7F6FE0146204603F0EAFAAB
:10436000D7E720468DF8284001F016FE03460AA83C
:1043700023B1154A934201D09847CAE701F008FEDD
:10438000C7E705A8FFF7E8FE059B8DF81C405D1BFD
:10439000751B2046CDE90A350C9501F007FE034652
:1043A0000AA907A823B1094A934201D09847B0E768
:1043B00001F0EFFDADE700BFAF870D00B2870D0044
:1043C000BA870D00BD870D00915F0D00935F0D0052
:1043D000B6870D002DE9F0418CB004AF04460522EC
:1043E0000068391D02F07EFBB8B3052804D0002018
:1043F0002037BD46BDE8F081B7F80520130A43EA2F
:104400000223B7F80720A7F8053099B2130A43EA48
:1044100002231FFA83F8A7F807300029E7D03B7979
:1044200023BB01F0B3FD0246E060607FB7F80730C0
:10443000C0B9B7F80510012914D1092B0FD0C82B2A
:1044400001D0042BD4D1012562612046657700F0AC
:1044500007FBFFF76BFE01F09DFD0120C8E703237A
:104460006377C5E7581F18BF0120C1E7B8F5806F13
:1044700003D92046FFF7A4FEEFE708F1080323F075
:1044800007036E46ADEB030D04AD20684246294696
:1044900002F028FB80454FF000007FD1B7F80730CD
:1044A000E85401F073FD3B79E060142B00F0A68026
:1044B00048D80F2B00F0A28007D8022B48D0062B3B
:1044C00051D02046FFF77CFE58E0112BF9D1002394
:1044D0003B70B7F807302B449D42C7E903534DD2D8
:1044E00007F10C00D5F80080FFF736FEFB68B7F83F
:1044F00007105D1B4D1BC7E905357B68FD61C3F3E4
:104500000F236383644B984500F0BF8000F28C80DA
:10451000A3F57F236FF400721344984500F09D804B
:1045200079D8A3F50033063B984500F09C8003F54D
:104530000033033398456BD107F11401384601F07D
:1045400028FD65E0292B1BD0372B17D01D2BB8D1A8
:10455000637F43B901236377204600F081FAFFF7B8
:10456000E5FD01F017FD0023C821B7F805200091F3
:10457000CDE901331946204600F0C4F901200DE0D1
:10458000A3681BB9402001F0AFFFA060B7F8078017
:10459000A8444545C7E9055802D30020B54627E79A
:1045A00029464022A06804F05DF8A368002583F83E
:1045B0003F5007F11400FFF7CFFD036843451BD2BE
:1045C000786920B1BB69984214D203F0EDFF85B23F
:1045D000206802F053FF2368A2685A631D870023F6
:1045E000637701F0D3FCA0F59C500838C4E90300C0
:1045F0006061C3E72846EAE75025E9E77B68B7F83A
:104600000720C3F30F23638329462046FFF7E2FD0B
:1046100000236383B2E7214B9845F9D107F11401D8
:10462000384601F0B6FCF3E71D4B984521D003F165
:104630009F6303F5003303F5807398451FD003F1A2
:104640006E4303F5302303F586739845E0D107F1F7
:104650001401384601F09DFCDAE707F114013846F1
:1046600001F097FCD4E707F11401384601F091FC02
:10467000CEE707F11401384601F08BFCC8E707F1DB
:104680001401384601F085FCC2E707F114013846F1
:1046900001F07FFCBCE700BF7666730064626700D0
:1046A00061636F6E2DE9F04104468CB00D46FFF753
:1046B0003DFD637F022B00F0A880237F628B0133D6
:1046C000DBB223770AB1012516E0022BFBD8206864
:1046D00002F0F3FCB8B125B9206802F075FE00289D
:1046E00011DD2046FFF776FE05460028F4D120684C
:1046F00002F0C4FE01F04EFC237F013B23772846E5
:104700000CB0BDE8F08101F041FC0646206802F0E3
:10471000D4FC677F012F054629D120B96661204668
:10472000FFF74EFDE8E7E3684FF21862F31A934291
:1047300004D92046FFF744FD0025DDE74AF6C8729C
:10474000934203D82369F31A9342BCD9636941F2B7
:104750007072F31A9342B6D90023CDE90133009366
:104760001A460621204600F0CDF86661ABE7002F1F
:10477000A9D16269B21A40B141F270739A42A2D9CA
:10478000206802F07BFE6777D6E741F288339A42D1
:1047900099D9206802F072FED4F800C0DCF834E049
:1047A000BCF83880BEF1000F0BD02B464246714654
:1047B000604602F0C1FE431E5D425D418DB96661F7
:1047C0009AE7134B06930CF120070FCF07AD0FC5E7
:1047D0003B682B704246734606A9604602F079FD9D
:1047E000E9E76368059301261846268303F032FF44
:1047F0000022CDE90122059B009032461D21204672
:1048000000F080F82369636176E7002577E700BF51
:104810001C980D002DE9F04115468CB00446043576
:1048200040F6B8300F46984601F0AEFB0FCD01AE12
:104830000FC62B683370676001F0A8FBA0F59C5091
:10484000083801AFC4E9030060610FCF07AE0FC69F
:104850003B68337007AF0FCF25684FF0000CC5F8E9
:1048600034C0A5F8388020350FC533682B706646F4
:1048700044F24F67206802F001FE667701F086FB84
:104880000546637F012B0CD001F080FB401BB84232
:1048900004D800212046FFF705FFF2E7637F012BD4
:1048A000E8D10CB0BDE8F08100B5002189B00F203F
:1048B00002F0ECFF104801F0CDFA0F4801F05EF86D
:1048C0000D4800F03DFE02F0D7FA4FF4165102F009
:1048D000C7FAA2230093AC22EA23A72102A802F080
:1048E00053FA0649064842F2823302AAFFF792FFC2
:1048F00009B05DF804FB00BFD4E50320C0870D00BC
:1049000078E503202DE9F04F83B000AF044600683E
:104910003D6B884616469946EB4602F0CEFB0028D2
:104920007FD0B8F11D0F04D84C4B23FA08F3DB07F6
:1049300002D4637F012B74D146B9668B36B9238BC1
:1049400001339BB2002B71D02383268BA8F10C037B
:10495000082B16D8D4E90323934238BF134603F13A
:10496000420A01F013FBAAEB0000002860DB0021E3
:104970002046FFF797FE01F009FBAAEB0000002894
:10498000F5DAB9F1000F5AD06B1D7A6B002ABA6BB9
:1049900008BF002203EB020A0AF1070323F0070312
:1049A000ADEB030DBB6BC7F804D0EA18C2F30723C5
:1049B00076BA43EA02238DF80080ADF80160ADF8C5
:1049C0000330B9F1000F3CD0002D3AD02A464946B9
:1049D0000DF1050003F0FAFD681D7B6B3BB1BB6B6D
:1049E0002BB11A467B68796B184403F0EFFD002564
:1049F00055452AD2AAEB05027B682068B2F5806F84
:104A000028BF4FF48062591902F041FB064600208E
:104A100001F0BAFABEB9206802F030FD667701F005
:104A2000B9FA0C37DD46BD46BDE8F08F01238BE7B0
:104A3000217F0029A5D12046FFF734FEA1E70523F9
:104A4000A3E70520C9E73544D2E703D02046FFF7A6
:104A5000B7FBE6E701F09AFA2061E2E745000020A3
:104A600000B595B004AB0022019349230093029254
:104A7000034B1121FFF746FF15B05DF804FB00BFA3
:104A800017880D0030B5ADF2244D08AB0024054663
:104A9000059305A84FF48063CDE90643FFF714FBA7
:104AA000069B013B0093CDE90144059B22460E2164
:104AB0002846FFF727FF0DF2244D30BD000000000F
:104AC000D0B5474C47482DED048B0021FFF7EAFD98
:104AD000204600F05EFD0F2002F015FFC11703F025
:104AE00031FA3BA3D3E9002303F062FA3AA3D3E9F6
:104AF000002303F087FB3C4B002206460F4603F0E1
:104B00009FF83A4B002203F053FA41EC190B204670
:104B100000F034FF0121204600F0C3FCB0EE490A4A
:104B2000F0EE690A00224FF0011302212046C4E989
:104B3000042301F083FF2E49204601F08EFE2B4B0B
:104B400000223046394603F033FA41EC180B0221BB
:104B5000B0EE480AF0EE680A204601F06FFF2549E2
:104B6000204601F07AFE204601F074F902F084F943
:104B7000B0EE490AF0EE690A022101F062FF02F08C
:104B80007BF9B0EE480AF0EE680A022101F059FF05
:104B9000204600F017FDA8B1204600F0EFFE1649B0
:104BA0001048FFF76FFF1549204601F056FE2046DA
:104BB00001F050F9BDEC048B41F28830BDE8D040E3
:104BC00001F0BABFBDEC048BD0BD00BFAFF30080D5
:104BD0006666666666660A400000000000FEAF403A
:104BE000D4E5032078E503200000E03F00005940B1
:104BF000E1870D00E4870D00E7870D0005880D00B3
:104C000038B5144D0021012001F0E2FB284602F0E6
:104C10007FFC05F11C0002F073F800240E4A0F49D6
:104C20006C6328462C8702F0EBFE0D4BC3E9005461
:104C3000C3E90244C3E904449C619C83094C0721F5
:104C4000204600F04FFC2046034A0749BDE83840A3
:104C500002F0D6BE98E5032074E50320F9400D006C
:104C600078E50320D4E50320B1540D00704710B55A
:104C70001021044602F0C9FE204610BD0EB403B553
:104C800003AB002153F8042B019301F0E5FE02B0C1
:104C90005DF804EB03B0704773B50446084622790B
:104CA000A36832B1A3B90B4902B0BDE8704001F06E
:104CB000C1BD094A267B094D0949647B012E18BFF5
:104CC0002946CDE900140749FFF7D8FF02B070BDAF
:104CD000054AEFE773880D006A880D006F880D00A4
:104CE0006B880D0089880D0062880D002DE9F04F5A
:104CF00085B01F46BDF93880BDF83C30A8EB0209ED
:104D0000A7EB010AB9F1000FB8BFC9F10009BAF168
:104D1000000FB8BFCAF1000AD14583460C461546BC
:104D200004DD3A462C4647460D469046BC4205DD1A
:104D30002A464546904622463C4617463E1BB2B29E
:104D40000092A8EB0502002AB8BF52420192C6F3B6
:104D5000C03202FA86F64545B4BF01224FF0FF3259
:104D600076100292BC421CDCDBF800200393D14594
:104D7000D2F81880C7BF294622462A4621465846FF
:104D8000C047019A039BB61AB1B236B2002E05DABB
:104D9000029A1544009A56182DB236B2013424B244
:104DA000E0E705B0BDE8F08F704710B404682469EF
:104DB000A4465DF8044B604730B40468BDF8085061
:104DC0000295A46BA44630BC604730B40468BDF8BB
:104DD00008500295E46BA44630BC604770B4BDF93E
:104DE0000C50BDF810600468CDE90356246CA4464D
:104DF00070BC60472DE9F3411C460368BDF8208074
:104E00005B6905461646013C34440F4624B2984778
:104E10002B68CDF8048000949C6A28463B463246B5
:104E20003946A0472B68DB6A284602B0BDE8F0414E
:104E300018472DE9F3411D460368BDF820805B69E2
:104E4000044617460E469847CDE9007822686B1E47
:104E50003344956A20461BB23A463146A847236838
:104E6000DB6A204602B0BDE8F04118472DE9F34760
:104E70001E460368BDF928905B69BDF82C800C467E
:104E80000546174698472644B4422B680BDACDF8FE
:104E90000080D3F820A021464B463A4628460134EC
:104EA000D04724B2F0E7DB6A284602B0BDE8F047FD
:104EB000184713B502680191B0F90E100091146CF7
:104EC000B0F90C3000221146A04702B010BD2DE908
:104ED000F3471D460368BDF82C805B69BDF9289037
:104EE00004460F46164698472368CDF80080D3F84D
:104EF00024A032462B4639462046D0472368CDF8B9
:104F0000008009F1FF323244D3F824A039462B4601
:104F1000204612B2D0472368CDF80080D3F820A0F5
:104F200032464B4639462046D0476B1ED919236876
:104F3000CDF800801D6A20464B46324609B2A8478C
:104F40002368DB6A204602B0BDE8F0471847704787
:104F50002DE9F74399421646BDF92870BDF82C900B
:104F6000026880460D461C4613D1BE42C8BF334678
:104F7000CDF82890C4BF3E461F467B1C946B9B1BFC
:104F80001BB2324629464046A44603B0BDE8F04372
:104F90006047BE420AD19942C2BF0B4625461C4615
:104FA000631CCDF82890D46B5B1BE9E753699847E5
:104FB000CDE90079D8F8003040469F6A3246234652
:104FC0002946B847D8F80030DB6A404603B0BDE850
:104FD000F043184701F00303B0F90A208376C907AC
:104FE000B0F9083059BF8381C2818281C381704783
:104FF00030B54281C281074A074D01810024818179
:105000004FF0FF31C0E90512446005600461047788
:10501000046230BD01010001B08D0D002DE9F04F9B
:1050200089B0CDE902120268BDF948800493BDF948
:105030004C3052690593BDF850A00446904718F1D2
:1050400007024FF0000648BF08F10E024FEAE20BDC
:1050500001963546039B019ABDF904109A18059BE9
:105060008B4212B227DD049B33444FF000090693B4
:105070000FFA89F080451FFA89F117DD4F0705BF48
:10508000069BC0106D001D5C18BFEDB22B060AD543
:10509000029B206807921944836909B21F46204683
:1050A0005346B847079A09F10109E1E7019B01332B
:1050B00001935E44CEE72368DB6A204609B0BDE871
:1050C000F04F18472DE9F04F2DED028B91B01646A9
:1050D000026ABDF874809DF878509DF87C40039179
:1050E0001F46BDF8703004938346002A40F0C58007
:1050F000B0F90C308B4240F34C81B0F90E30B34222
:1051000040F34781062313FB0513002B40F3418135
:1051100006EBC403002B40F33C81037F1BB9AF2F88
:1051200084BF0137FFB2DBF8003058465B6998470F
:105130000522099200220592984A07EB8703D318AB
:105140000C93B3B20693059A0C9B9B5C0793ABB28E
:105150000B93BDF80C300893039B02FB05F919FA79
:1051600083F90FFA89F308EE103A08230A93039B98
:1051700002EB030A4FF000090FFA8AFA079ADBF8EC
:105180000030D20752D5012D1FFA89F23ED1012CF1
:105190003CD19B6906991F46049B0A4412B25146B2
:1051A0005846B84709F101034FFA83F9079B5B089A
:1051B00007930A9B013B13F0FF030A93DED1059F7F
:1051C00001377BB20593099B013B13F0FF03099361
:1051D000B9D1049B43450FD0012DDBF800303BD102
:1051E000012C39D10899CDF8008005311C6A32466E
:1051F000082309B25846A047DBF80030DB6A58465E
:1052000011B0BDEC028BBDE8F04F1847069914FBB6
:1052100002F20A44049901910094DB6918EE101A15
:105220001F4612B22B465846B847BBE7049A424580
:10523000B8D0012D1FFA89F207D1012C05D19B6945
:1052400006991F460A444346A8E70699CDF804800C
:1052500014FB02F20A44DFE70B9ACDF8048002EB5C
:105260008201089AE4000A4411460094DC6932463F
:105270002B4609B25846A047BEE7137A5168126818
:105280000D92FF1AFFB201EBC70331F837200692E7
:105290009A780992DA780B92012D93F9052093F907
:1052A00006A00A9201D8012C57D9BDF928300893DD
:1052B0000FFA8AF30793DBF8003058465B6998478A
:1052C000B3B24FF000080E931AFA86F3C146474670
:1052D0000F930B9B9F428FD2079B0E9A3B4403FB7D
:1052E0000423002205920F9A1BB202EB070A08EE74
:1052F000103A0FFA8AFA4346099A0599914241D227
:105300005A1CD2B25B070C9207D1069B06990D9AE4
:1053100001339BB212F80190069319F0800F12D05E
:10532000012DDBF80030BDF80C101AD1012C18D17A
:105330000A9A9B691144059A11441E465246049BE1
:1053400009B25846B047059E0136F3B24FEA490903
:1053500005935FFA89F90C9BCEE70023CDE907336B
:10536000A9E70598089A024402FB0511049ACDE9C1
:105370000042DB6918EE102A1E4609B22B46584639
:10538000B047E0E7099B013798445FFA88F8FFB21D
:105390009FE711B0BDEC028BBDE8F08FA6880D0031
:1053A000F0B5026A85B004460B46002A34D10A29BA
:1053B00008D1438A0282427E03EBC203638201204A
:1053C00005B0F0BD0D29FAD0E17E007E657E71B199
:1053D000B4F91060062111FB0061B4F90C60B14210
:1053E000C1BFB4F91210228201EBC5026282E28AC7
:1053F0000192A28A0092CDE90205B4F91220B4F913
:1054000010102046FFF75EFE237E228A03EB430343
:1054100002EB43032382D2E70A2907D10023038248
:10542000937A417E428A01FB0323C7E70D29C6D048
:10543000157AA942C3D3517A9942C0D351685D1BF2
:10544000EDB201EBC505AF782FB3E97819B3E17E72
:10545000007E667E91B195F905103944B4F910705B
:1054600000FB0171B4F90C70B94207DD00272782F7
:10547000B4F91210927A02FB06126282E28A019259
:10548000A28A0092CDE90206B4F91220B4F91010F4
:105490002046FFF717FE2979237E228A01FB03238A
:1054A000B8E7012938BF0121017641767047000035
:1054B00010B5064B03600446006D08B100F0F8FD1E
:1054C000204600F0E3F8204610BD00BF088E0D0016
:1054D00010B50446FFF7ECFF2046702102F095FA64
:1054E000204610BD30B585B004460D4602F060FA86
:1054F000104A1149CDE901214FF0FF3280210346C6
:1055000000922046202200F047F90C4B2360002334
:10551000C4E9143504F1580000F05EF804F16000AD
:1055200000F05AF804F1680000F056F8204605B083
:1055300030BD00BF801A0600A0860100088E0D0055
:1055400013B50446503000F0ABFD636DD90705D5A7
:105550000222042104F1580000F052F8636D9A070A
:1055600005D50022032104F1600000F049F8636DC5
:105570005B0705D50222114604F1680000F040F8EF
:10558000012300933C220221204600F005FA02B0DC
:1055900010BD10B5436DD907044602D5583000F050
:1055A0003CF8636D9A0703D504F1600000F035F80C
:1055B000636D5B0705D504F16800BDE8104000F09D
:1055C0002CB810BD436D024613F0010003D002F168
:1055D000580000F052B8704700210A22C0E90012BA
:1055E0007047002310B50446C171837188B202F080
:1055F00077F908B10323A37100F04AFD206010BDC4
:1056000038B50C4605461146A0B202F03FF92146D6
:105610002846BDE83840FFF7E4BF38B50446C079F6
:1056200002F05EF9A579003825F0080318BF0120C3
:10563000C5F340058542A3710AD000F029FDA37986
:10564000206083F00203A371A079C0F3C00038BDCD
:1056500000F01EFD2368C01AA3889842F4D3A379F2
:1056600003F00103AB42EFD000F012FDA3792060FC
:1056700083F0010343F00803E5E7807900F00900B7
:10568000A0F10803584258417047000010B5044B80
:1056900003600446C06A08B100F02EFF204610BD2A
:1056A00014930D0010B50446FFF7F0FF204650217B
:1056B00002F0ABF9204610BD002910B54BDBB0F964
:1056C0000C408C4247DD002A45DBB0F90E40944285
:1056D00041DD847E022C1FD0032C26D0012C04D166
:1056E0000489D24314440A4621B2012B23D0022B51
:1056F00032D083BB002A13460489C06AB8BFD31DC9
:10570000DB1013FB041102F0070201239340425CFB
:1057100022EA030242541EE00489C9432144448919
:10572000D243224409B212B2DFE74489C9430C4490
:10573000114622B2D9E7002A04891346B8BFD31D07
:10574000DB1013FB0411C36A02F007000122824040
:10575000585C02435A5410BD002A13460489C06A9B
:10576000B8BFD31DDB1013FB041102F007020123A5
:1057700003FA02F2435C5A40CCE710B5044690F9B4
:105780003600012180B202F092F8606A18B1BDE8DB
:10579000104000F038BF10BD70B504461D4600260D
:1057A000FFF726FC114B2360666215B902F000F981
:1057B0000546FF2384F8333084F836309DF91030E5
:1057C00084F837300A4BA363012384F83C30059BEF
:1057D000A3644FF6FF72069BA286C4E90A562664AC
:1057E000A4F84460E364204670BD00BF14930D002C
:1057F000608E0D00F8B50446806A0D4690B194F9AC
:10580000301001F02DFCA06A036800219B689847C6
:10581000A06A036829469B689847A06ABDE8F840DB
:1058200001F025BC94F93530014698B202F03FF8FA
:10583000606A20B12946BDE8F84000F06BBF082639
:10584000802794F9330005EA070180B202F02FF8AF
:1058500094F93400012180B202F029F894F934005F
:10586000002180B202F023F8013E4FEA5707E8D149
:10587000F8BD38B50446806A0D4680B1A16C01F0D0
:10588000E1FB002D204614BFA721A621FFF7B2FFA0
:10589000A06A88B1E16CBDE8384001F0D3BB606A12
:1058A00018B104F1380100F0C7FE94F93600002168
:1058B00080B201F0FCFFE4E72046BDE83840FFF786
:1058C0005CBF2DE9F8430446806A0D468F1840B34B
:1058D00094F9301001F0C4FBA06A036800219B68B2
:1058E00098470126BD42A06A17D01F2E0CD901F09F
:1058F000BEFB94F93010A06A01F0B2FBA06A036805
:1059000000219B6898470126A06A15F8011B0368CF
:1059100001369B689847F6B2E4E7BDE8F84301F02A
:10592000A6BB94F93530014698B201F0C0FFAF42F2
:1059300022D0606A15F8019B18B1494600F0EAFED2
:10594000F5E708264FF0800894F9330009EA0801CA
:1059500080B201F0ACFF94F93400012180B201F073
:10596000A6FF94F93400002180B201F0A0FF013EAF
:105970004FEA5808E8D1DAE7BDE8F883B0F90A3011
:10598000DA1D48BF03F10E02B0F90830C06AD21028
:105990005A43002102F028BE2DE9FF411E46C36A8A
:1059A0009DF8288004460F461546B3B12046FFF700
:1059B000E5FFB4F90A00B4F9081020281FDC202301
:1059C0000122CDE90132203873237339009300EBB3
:1059D000D070894B01EBD1711FE0B0F90A30D81DAE
:1059E00048BF03F10E00B4F90830C010584300F06E
:1059F0007BFDE0620028D9D104B0BDE8F0814023EE
:105A00004FF0010CCDE9013C52234038523900934C
:105A10007A4B00EBD07001EBD17140F34F0241F3B0
:105A20004F012046FFF7FAFAA06A84F83170002887
:105A300078D0002D74D1B4F90A30202B0CBF3C254E
:105A40003D2584F83050B8F1000F01D001F0FEFA86
:105A5000FEB194F9370000281BDB012180B201F070
:105A600015FF94F93700012180B201F020FF0120D9
:105A700001F062F894F93700002180B201F017FFBD
:105A80000A2001F059F894F93700012180B201F0A1
:105A90000EFFA06A002874D0A16C01F0D3FA042292
:105AA00057492046FFF70DFFA17A0139C9B22046B8
:105AB000FFF7A0FE534904222046FFF702FF94F9A6
:105AC0003130012B0CBF102114212046FFF792FE2C
:105AD00004224D492046FFF7F4FEA3684B4A934247
:105AE0005CD14B4904222046FFF7EBFED92120462A
:105AF000FFF780FE94F93130012B0CBF2221F121F8
:105B00002046FFF777FE204642490622FFF7D9FEDE
:105B1000A06A002863D0E16C01F094FA01206BE7E1
:105B20006DB28EE794F93500012180B201F0AEFE2E
:105B300094F93600012180B201F0A8FE94F93600F4
:105B4000012180B201F0B3FE656A3DB1B8F1000FEA
:105B50003FF47EAF284600F045FD79E794F9330025
:105B6000012180B201F092FE94F93400012180B24B
:105B700001F08CFE94F93400294680B201F097FEC2
:105B800066E7606A18B104F1380100F055FD94F938
:105B90003600002180B201F08AFE80E71E4A93425F
:105BA0000ED11E4903222046FFF78BFE94F93130B7
:105BB000012B0CBF9F21CF212046FFF71BFE95E74D
:105BC000174A934292D1174903222046FFF779FEE4
:105BD00094F93130012B0CBF1021AF21ECE794F97F
:105BE0003600012180B201F062FE606A002895D083
:105BF00000F009FD92E700BF2C910D006C8E0D00A6
:105C000074930D0078930D007C930D0080002000AC
:105C100086930D0080930D00800040008A930D0054
:105C2000600010008D930D0070B5002ABDF8105073
:105C30003DDBB0F90A40944239DD0029BEBF5B1854
:105C40001BB20021B0F90840CE18A642C4BF631AA7
:105C50001BB2002B2BDDC06AD61014FB06110144C9
:105C600002F0070001228240012DD2B216D0022D8F
:105C70000BD0E5B9D243D2B20B44994217D011F8F8
:105C8000010B104001F8010CF7E70B4499420ED0CC
:105C900011F8010B504001F8010CF7E70B44994251
:105CA00005D011F8010B104301F8010CF7E770BDA6
:105CB000F0B50029BDF8146076DBB0F90850A942B0
:105CC00072DA002ABCBFD21813B2B0F90A40B8BFCA
:105CD0000022D718A742C4BFA31A1BB2002B63DD52
:105CE000C2F3C404C76A15FB041112F00702DBB249
:105CF00007EB010423D0C2F10802D2B22C4D93422B
:105D00003CBF4FF0FF0CA2EB030EAD5C3CBF4CFA66
:105D10000EFC0CEA0505012E07D0022E2ED04EB93E
:105D200017F801C02CEA050503E017F801C045EAA1
:105D30000C057D54934237D3B0F908100C449A1ADD
:105D4000D2B2072A0ED9022E1DD113462178C9439B
:105D50002170083BB0F90810DBB2072B0C44F5D8D2
:105D600002F0070202B3134B012E9B5C19D0022EE6
:105D70001BD0CEB9227822EA030314E017F801C041
:105D800085EA0C05D5E7002E14BFFF250025134634
:105D90002570083BB0F90810DBB2072B0C44F7D88C
:105DA000DEE7227813432370F0BD22785340FAE7F0
:105DB00064930D006C930D0070B41446827EBDF8A0
:105DC0000C60022A0DD0032A18D0012A11D10289B1
:105DD000E443144424B203960A46214670BCFFF7FC
:105DE00067BF42890589E44319441444691A24B2FF
:105DF00009B20396224670BCFFF716BF45891944C5
:105E0000691A09B2E7E730B41446827EBDF808503B
:105E1000022A0DD0032A18D0012A11D1E2180489D0
:105E2000A41A24B202950A46214630BCFFF7FCBEF4
:105E30000289C9431144E2184489A41A09B224B260
:105E40000295224630BCFFF733BF4289C943114453
:105E500009B2E7E72DE9F8430446806A002842D0FA
:105E6000A16C01F0EFF8474905222046FFF729FD14
:105E7000217A01392046C9B2FFF7BCFCB4F90A30D7
:105E8000DE1D48BF03F10E06D4E90A052389F6108A
:105E900013FB06F615FA86F600283AD094F930106E
:105EA00001F0DEF8A06A036840219B68984701274B
:105EB000B542A06A24D01F2F0CD901F0D8F894F96C
:105EC0003010A06A01F0CCF8A06A036840219B68FA
:105ED00098470127A06A15F8011B036801379B68E2
:105EE0009847FFB2E4E7606A18B104F1380100F0A6
:105EF000A3FB94F93600002180B201F0D8FCB2E790
:105F000001F0B5F8A06A78B3E16CBDE8F84301F0A0
:105F100099B894F93500012180B201F0C8FCB5426E
:105F2000F0D0606A15F8019B18B1494600F0F2FB09
:105F3000F5E708274FF0800894F9330009EA0801D3
:105F400080B201F0B4FC94F93400012180B201F078
:105F5000AEFC94F93400002180B201F0A8FC013FAE
:105F60004FEA5808E8D1DAE794F93600012180B207
:105F700001F09DFC606A18B1BDE8F84300F043BB36
:105F8000BDE8F88390930D0000F0D6BD00F080B816
:105F9000704770477047000003065ABF024B53F822
:105FA00020000020704700BF98930D0003065ABFE1
:105FB000024B53F820000020704700BF98950D0059
:105FC00008B5024B1B689B68019308BD680203007B
:105FD00008B5024B1B68DB68019308BD680203002B
:105FE00008B5024B1B685B68019308BD2C020300D7
:105FF00008B5024B1B689B68019308BD2C02030087
:1060000008B5024B1B68DB68019308BD2C02030036
:1060100008B5024B1B681B69019308BD2C020300E5
:1060200008B5024B1B685B69019308BD2C02030095
:1060300008B5024B1B689B6A019308BD2C02030044
:1060400008B5024B1B681B6B019308BD2C020300B3
:1060500008B5024B1B689B6F019308BD2C0203001F
:1060600008B5024B1B685B69019308BD6C02030015
:1060700008B5024B1B685B68019308BD180203005A
:1060800008B5024B1B68DB68019308BD18020300CA
:1060900008B5024B1B685B69019308BD1802030039
:1060A00008B5024B1B681B6B019308BD4802030037
:1060B00008B5024B1B685B6B019308BD48020300E7
:1060C00008B5024B1B685B6C019308BD48020300D6
:1060D00008B5024B1B689B6C019308BD4802030086
:1060E00008B5024B1B685B69019308BD640203009D
:1060F00008B5024B1B681B6A019308BD64020300CC
:1061000008B5024B1B689B6A019308BD640203003B
:1061100008B5024B1B681B68019308BD3C020300D5
:1061200008B5024B1B68DB68019308BD3C02030005
:1061300008B5024B1B681B69019308BD3C020300B4
:1061400008B5024B1B685B69019308BD3C02030064
:1061500008B5024B1B689B69019308BD3C02030014
:1061600008B5024B1B68DB69019308BD3C020300C4
:1061700008B5024B1B681B6A019308BD3C02030073
:1061800008B5024B1B689B6A019308BD3C020300E3
:1061900008B5024B1B681B68019308BD2802030069
:1061A00008B5024B1B68DB68019308BD2802030099
:1061B00008B5024B1B689B69019308BD28020300C8
:1061C00008B5024B1B68DB69019308BD2802030078
:1061D00008B5024B1B681B6A019308BD2802030027
:1061E00008B5024B1B685B6A019308BD28020300D7
:1061F00008B5024B1B689B6A019308BD2802030087
:1062000008B5024B1B68DB6A019308BD2802030036
:1062100008B5024B1B681B6B019308BD28020300E5
:1062200008B5024B1B685B6B019308BD2802030095
:1062300008B5024B1B681B6C019308BD28020300C4
:1062400008B5024B1B689B69019308BD3802030027
:1062500008B5024B1B68DB69019308BD38020300D7
:1062600008B5024B1B681B6A019308BD3802030086
:1062700008B5024B1B689B6A019308BD38020300F6
:1062800008B5024B1B681B6B019308BD3802030065
:1062900008B5024B1B689B6B019308BD38020300D5
:1062A00008B5024B1B681B68019308BD3002030050
:1062B00008B5024B1B685B69019308BD30020300FF
:1062C00008B5024B1B68DB69019308BD300203006F
:1062D00008B5024B1B681B6A019308BD300203001E
:1062E00008B5024B1B685B6A019308BD30020300CE
:1062F00008B5024B1B68DB6B019308BD300203003D
:1063000008B5024B1B681B6C019308BD30020300EB
:1063100008B5024B1B685B6C019308BD300203009B
:1063200008B5024B1B681B68019308BD4C020300B3
:1063300008B5024B1B685B68019308BD4C02030063
:1063400008B5024B1B681B69019308BD4C02030092
:1063500008B5024B1B685B69019308BD4C02030042
:1063600008B5024B1B689B69019308BD4C020300F2
:1063700008B5024B1B68DB69019308BD4C020300A2
:1063800008B5024B1B681B6A019308BD4C02030051
:1063900008B5024B1B685B6B019308BD60020300EC
:1063A00008B5024B1B681B6D019308BD600203001A
:1063B00008B5024B1B685B68019308BD200203000F
:1063C00008B5024B1B685B69019308BD20020300FE
:1063D00008B5024B1B68DB6A019308BD200203006D
:1063E00008B5034B1B68D3F88830019308BD000043
:1063F0002002030008B5034B1B68D3F894300193C7
:1064000008BD00002002030008B5024B1B685B6852
:10641000019308BD4002030008B5024B1B689B684E
:10642000019308BD4002030008B5024B1B68DB68FE
:10643000019308BD4002030008B5024B1B681B69AD
:10644000019308BD4002030008B5024B1B685B695D
:10645000019308BD4002030008B5024B1B689B690D
:10646000019308BD4002030008B5024B1B68DB69BD
:10647000019308BD4002030008B5024B1B681B6A6C
:10648000019308BD4002030008B5024B1B681B6B5B
:10649000019308BD4002030008B5024B1B685B6B0B
:1064A000019308BD4002030008B5024B1B681B6C3A
:1064B000019308BD4002030008B5024B1B685B6CEA
:1064C000019308BD4002030008B5024B1B689B689E
:1064D000019308BD4402030008B5024B1B68DB6B47
:1064E000019308BD4402030008B5024B1B681B68FA
:1064F000019308BD1C02030008B5024B1B685B68D2
:10650000019308BD1C02030008B5024B1B68DB6940
:10651000019308BD1C02030008B5024B1B685B6AAF
:10652000019308BD1C02030008B5024B1B68DB6B1E
:10653000019308BD1C02030008B5024B1B685B6C8D
:10654000019308BD1C020300002240681146FFF7BA
:1065500093BF002240681146FFF79EBF40680022AB
:10656000FFF792BF4068002281F00101FFF77CBF76
:10657000002340681A461946FFF76EBF00234068A3
:106580001A461946FFF760BF002240681146FFF720
:1065900053BF002240681146FFF73EBF406800220B
:1065A0000221FFF741BF002340681A46FFF72CBFC6
:1065B000024B03225A60024A1A60704750E60320D9
:1065C000A0970D000021FFF79BBE0021FFF7A0BEA2
:1065D00010B5044608462170FFF772FE0023636081
:1065E000204610BD10B504460078FFF7EBFF48B910
:1065F00020784FF6FF71FFF753FE2078BDE810407A
:10660000FFF7E3BF10BD0078FFF7DFBF400830B5EC
:106610001860002418688842E5B206D90134082CB5
:1066200002D040081860F5E70725024B5B5D137048
:1066300030BD00BFD4970D002DE9F04306468FB062
:1066400000780C46FFF7BEFF00281BDB35781422CC
:10665000002109A801F0C8FF0B23002209A9284640
:10666000ADF82430FFF73CFE9DF82D3013B19DF8B6
:106670002C5055B10027B946B846012523795DB1A4
:10668000C3B100200FB0BDE8F083DDF830809DF885
:1066900034909DF83570F1E7002B35D1A368434560
:1066A00008D18DF820908DF82170BDF82020A389A5
:1066B0009A42E6D00023A1688DF80F300A9804AB07
:1066C0000DF10F02FFF7A2FF217985B989B9A368FF
:1066D00043450ED38DF820908DF82170BDF8202011
:1066E000A3899A4205D1049B434502D1C9E70029F9
:1066F000F9D100230193637B00939DF80F20237B46
:106700003078FFF7F5FDBCE7CDE900552B462A466A
:106710000121F5E708B50078FFF7CAFDC0B208BD52
:1067200010B50446006818B1FFF7E6FE00232360A9
:1067300010BD10B50446FFF7F3FF204610BD000062
:1067400010B5094B094C022200201A60084B20604A
:10675000A080A071A360FFF72BFE2046054A0649E2
:10676000BDE8104001F04CB964E6032058E6032070
:106770000000FFFF74E5032033670D0070B586B09D
:10678000064601AD684600F00BFB0FCD341D0FC46B
:106790002B682370304606B070BD10B50446006803
:1067A00008B1FFF795FC204610BD10B5836804467C
:1067B00013B1032201469847204610BD10B5064C80
:1067C000002320462360FFF77BFC2046034A044950
:1067D000BDE8104001F014B968E6032074E5032019
:1067E0009B670D00F8B506460D468F180024BD4284
:1067F0000CD0336815F8011B9B6830469847031E80
:1068000001DB1C44F3E7002C08BF1C462046F8BD02
:1068100013B50446084659B1019101F01BFF2368E6
:106820000199DB680246204602B0BDE810401847D7
:1068300002B010BD08B5FFF7EBFF08BD03689B6809
:10684000184738B50D210546FFF7F8FF0A21044621
:106850002846FFF7F3FF204438BD38B50546FFF75B
:10686000D7FF04462846FFF7ECFF204438BD30B57B
:106870008BB000238DF82430012A98BF0A2209AC7E
:106880000D46B1FBF2F101FB125303F0FF03092B9C
:1068900094BF30333733DBB2AA4204F8013DEFD95D
:1068A0002146FFF7B5FF0BB030BD00002DE9F74FD3
:1068B00055EC104B06460F4610EE102A10EE100A4B
:1068C0002B46294601F00EFE40B153493046FFF7F2
:1068D0009FFF8246504603B0BDE8F08F25F0004987
:1068E0004E4B4FF0FF322046494601F0FBFD48B9C0
:1068F0004A4B4FF0FF322046494601F0D5FD08B91A
:106900004749E3E7474B4FF060422046294601F0F4
:10691000DFFD08B14449D9E7444B4FF060422046BF
:10692000294601F0B7FD0028F4D1002200232046BB
:10693000294601F0AFFDD0B12D213046FFF77EFF93
:1069400005F1004382461D463949DFF8EC904FF0CF
:10695000000B00204FF000085FFA8BF39F4208D92C
:1069600042464B4601F04EFC0BF1010BF4E7824628
:10697000EAE722462B4601F065F90D46044601F090
:10698000EFFD804601F09AFA02460B462046294662
:1069900001F056F90A2204460D4630464146FFF7FB
:1069A00066FF824427B123493046FFF731FF824416
:1069B000DFF884904FF00008013FFFB2FF2F89D02D
:1069C00042464B462046294601F0F2FA04460D465F
:1069D00001F09EFDB0F1000B1ADA2D213046FFF7D1
:1069E0002DFFCBF1000103460A2230460193FFF749
:1069F0003EFF019B18448244584601F06FFA02465C
:106A00000B462046294601F01BF904460D46D3E704
:106A100059460023E8E700BFE4970D00FFFFEF7F32
:106A2000E8970D00FFFFEF41EC970D00FFFFEFC16E
:106A30000000E03FF0970D0000002440C9B2FFF7CE
:106A400035BF38B5C9B20546FFF730FF04462846C2
:106A5000FFF7F7FE204438BD2DE9F04186B000AFC6
:106A600005460E46381D142114463B60FFF754FDC1
:106A700013280ED8391D2846FFF7CAFE04461EB15A
:106A80002846FFF7DEFE044420461837BD46BDE821
:106A9000F08100F1080323F00703E846ADEB030D96
:106AA0002246411C3B686846FFF736FD694628468A
:106AB000FFF7AEFE0446C546E1E710B50446FFF712
:106AC000E7FAE060236820465B699847002808DA07
:106AD000FFF7DEFAE368C01AA3689842F2D34FF0DA
:106AE000FF3010BDF8B506460D4617460024BC42DF
:106AF00007D03046FFF7E1FF031E02DB2B550134C0
:106B0000F5E72046F8BD002340681A461946FFF70E
:106B10009BBC0000014B024A1A6070476CE60320E0
:106B2000F2970D00024B1A68024B1A60704700BFC3
:106B30000CE5032070E603200021FFF741BC10B5EF
:106B40000446FFF732FE204610BD00000348044A09
:106B500004490023836000F053BF00BF74E60320A4
:106B600074E503203F6B0D00014B1860704700BFB8
:106B700010E5032008B50B4B43B100F07DF9036825
:106B80001B699847002801DDAFF30080064B43B135
:106B900000F0F0F903681B699847002801DDAFF3A6
:106BA000008008BD000000000000000008B5FFF7ED
:106BB000E1FFFFF76DFA014B186008BDD4E7032031
:106BC0000248034A0349121A01F000BD00F40320F1
:106BD00004F40320D09B0D0007B5002300931A4650
:106BE0006FF07701FFF706FC03B05DF804FB0000CF
:106BF00007B543880A2B08D0502B0BD1094B1B68D3
:106C00004BB103B05DF804EB1847FFF7E5FF03B0A5
:106C10005DF804FB002300931A466FF07701FFF73D
:106C2000E9FBF4E788E6032038B5124C1248134D0F
:106C30000021FFF781FC2368AB42114B0CBF0122FE
:106C400000221A7002D0FFF7BBFF2560FFF710FA91
:106C5000044601F0D1FC0B4B13B12046AFF300808A
:106C600000210848FFF738FCBDE8384006480021FD
:106C7000FFF7B6BB00F40320696B0D001E1C279ABA
:106C800084E6032000000000F16B0D00704710B592
:106C90001821044600F0B9FE204610BDF0B5037D72
:106CA000062B8DB00E4600F104074FF0000412D001
:106CB00000F1080515F8011D0A223046FFF7D7FD3F
:106CC000AF42044419D0002CF4D02E213046FFF7F7
:106CD000B5FD0444EEE72F236A4639460A208DF8B5
:106CE0000040FFF7FDF9684601F0B4FC3368024646
:106CF000DB68694630469847044620460DB0F0BD33
:106D000010B5054B0446112240F8043B002101F068
:106D10006BFC204610BD00BF1C980D000346074ABF
:106D200010B543F8042B01F1100251F8044B43F85D
:106D3000044B9142F9D10A781A7010BD1C980D00CD
:106D4000037D042B04D14068003818BF0120704730
:106D5000062B07D143683BB983682BB9C3681BB9BD
:106D60000069F1E7002070470120704710B59DF8D9
:106D7000084044EA032343EA024242EA0161042351
:106D80004160037510BD000037B5044D05609DF8E6
:106D900018500095FFF7EAFF03B030BD1C980D00B6
:106DA00013B5054B0360CB7800938B784A7809784C
:106DB000FFF7DCFF02B010BD1C980D004174704756
:106DC000704708B50021007CFFF7CAFA40EAE0707E
:106DD00008BD08B50121007CFFF7C2FA40EAE07067
:106DE00008BD08B5007CFFF7B3FA20EAE07008BDE3
:106DF00008B5007CFFF7A4FA20EAE07008BD13B5DF
:106E00000446007C0191FFF7A3FA0028019901DCF8
:106E1000607C20B1207CFFF7ABFA20EAE07002B082
:106E200010BD007CFFF7ACBA10B51421044600F089
:106E3000ECFD204610BD000010B54FF47A730446F7
:106E400008460021C4E90113044B23600123207488
:106E500063741146FFF764FA204610BD30980D00A8
:106E6000007C0022FFF764BA10B51422044600210A
:106E700001F0BAFB204610BD10B5104C88B003A835
:106E8000FFF7F2FF2178BFF35B8F11F0010111D101
:106E900020460191FDF710F9019958B103AA08485D
:106EA000FFF7CAFF2046FDF70CF9064A06490448D9
:106EB00000F0A6FD024808B010BD00BF8CE603201C
:106EC00090E6032074E50320C16D0D007047417406
:106ED000704708B5007CFFF753F920EAE07008BD61
:106EE00008B5007CFFF724F920EAE07008BD08B57A
:106EF000007CFFF72DF940EAE07008BD08B5007C82
:106F0000FFF71EF940EAE07008BD007CFFF728B9E2
:106F100037B5457C04462DB1207C03B0BDE8304038
:106F2000FFF7FEB8007C0191FFF72AF900280199CC
:106F3000F2DC284603B030BD10B51421044600F041
:106F400064FD204610BD000010B54FF0000C044653
:106F5000084611464FF47A72C4E901C2044A22601D
:106F60000122207462741A46FFF7D2F8204610BD41
:106F700060980D0013B50E4C2178BFF35B8F11F0B4
:106F8000010112D120460191FDF796F8019960B1F7
:106F9000084A094B0948FFF7D7FF2046FDF791F84B
:106FA000074A0849054800F02BFD044802B010BD0F
:106FB000A4E60320A8E603202CE70320B0E7032083
:106FC00074E50320CD6E0D007047F8B506461546F2
:106FD0000C468F18BC4206D0336814F8011B9B681E
:106FE00030469847F6E72846F8BD007C0022FFF7B8
:106FF000EFB8007C0021FFF7F3B8007C0021FFF719
:10700000F7B8007C0021FFF7FBB8007C0021FFF7F8
:10701000FFB810B51421044600F0F7FC204610BD5F
:1070200010B54FF47A73044608460021C4E90113F1
:10703000034B236020741146FFF7FAF8204610BD79
:1070400090980D00007C0022FFF7A2B80023007C7E
:107050001A461946FFF7A4B8007C0022FFF7A8B82B
:10706000C9B2FFF7F9BF007C0022FFF7A9B80121E0
:10707000FFF7F9BF13B503688DF80710DC6B012229
:107080004FF0FF330DF10701A04702B010BD10B45F
:107090000368DC6B4FF0FF33A4465DF8044B604798
:1070A00013B5134602688DF80710D46B0DF1070174
:1070B0000122A04702B010BD704738B543691A6875
:1070C000002A054610DAB3F88620B3F884309A42D5
:1070D0000AD103681B699847044628B92B682846DB
:1070E000DB6A9847204638BD0120FCE743691868F1
:1070F000C043C00F70477047064B994210B500F16E
:107100000C0405D0084600F085FC002808BF0024C8
:10711000204610BDDC970D0010B5AC21044600F0F0
:1071200074FC204610BDFCF7BABF2DE9F0414FF0CA
:10713000000886B01D46C0F8048004460E46174677
:107140004146102202A801F04FFA6B1C09D04FF4FF
:107150007A70B5FBF0F3CDE9023800FB13535843C6
:107160000490606910230093006802AB41F20502AD
:1071700040F6FF71FFF764F8002807DAFFF7D4F94B
:1071800003686360002006B0BDE8F08160690023F9
:1071900000683A463146FFF773F8031EEEDB1846E7
:1071A000F1E7000038B584690A4B036005467CB1FD
:1071B0006368013B63605BB9236820469B6898471E
:1071C000A368013BA3601BB923682046DB6898478E
:1071D000284638BDEC980D0010B50446FFF7E2FFD5
:1071E00020461C2100F011FC204610BD70B54D69F1
:1071F000054B04468C3544F8043B06460FCD0FC4BE
:107200002B682370304670BD1C980D0010B5436983
:10721000B3F88620B3F884309A42044605D06369F7
:10722000B3F884201344187910BD03681B6998478C
:107230000028F4D14FF0FF30F6E710B54369B3F8FA
:107240008620B3F884309A42044608D06369B3F8C4
:107250008420511CA3F884101344187910BD0368CE
:107260001B6998470028F1D14FF0FF30F6E7F8B5D9
:1072700043691746B3F88620B3F884309A4205462E
:107280000E4616D06969B1F88430B1F88640E41A28
:10729000BC4228BF3C46043322461944304601F024
:1072A00095F96A69B2F884302344A2F88430204604
:1072B000F8BD03681B6998470028E3D14FF0FF34FD
:1072C000F5E742690023A2F884304269A2F88630CB
:1072D00070472DE9F0411F4603680C46DB6A8AB00F
:1072E000054616469847237DD5F81480042B0CBF1D
:1072F00002200A2006220121FEF7CAFFC8F800007A
:107300006B691B68002B08DA2B682846DB6A0024AF
:10731000984720460AB0BDE8F0812846FFF7D1FF24
:10732000B7B1002303A9F8B20393ADF81030FEF70C
:1073300097FE0028E8D1686906230093006803AB34
:1073400041F20B0240F6FF71FEF77AFF0028DBD115
:107350001C22002103A801F047F9237D042B1DD135
:107360004FF407733046ADF80C30FEF7C9FEADF8A8
:107370000E006068FEF7BCFE04906B691C22186862
:1073800003A9FEF76DFF0028BED104340FCC6D6950
:107390008C350FC523682B700124BAE740F61C23F7
:1073A0003046ADF80C30FEF7ABFE05AEADF80E0082
:1073B000231D04F1140718685968324603C20833C4
:1073C000BB421646F7D1D8E730B54269B2F88630ED
:1073D0008BB004462BB1B2F884209A4201D1FFF75A
:1073E00070FF61690868002818DBB1F886507F2DAE
:1073F00014D804310823C5F180022944FEF738FF70
:10740000002813DD6369B3F886200AB9A3F8842045
:107410006369B3F886201044A3F886006369B3F863
:107420008600B3F88430C01A0BB030BDFFF77CF88B
:1074300003680B2BF2D0FFF777F803680B2BEDD026
:1074400020230025CDE90235FFF76EF8036801938C
:10745000084B0949009302AA2B463220FEF7A0FFF1
:1074600063691868FEF7F4FE63694FF0FF321A6033
:10747000D4E700BFB7980D00B0980D0010B5436970
:1074800004461868002801DBFEF7E2FE63694FF04E
:10749000FF321A606069112200218C3001F0A4F8DB
:1074A0002046BDE81040FFF70CBF10B5002304468E
:1074B0000160C0F884308830FFF722FC204610BD00
:1074C00073B500234FF47A72C0E901320E4A0361AA
:1074D000026043610446AC200191FCF7DCFD051E0F
:1074E00005F10C0608D00123C5E90133074B0199CA
:1074F0002B603046FFF7D9FF2046C4E90565FFF74A
:10750000E0FE02B070BD00BFEC980D00D0980D00F9
:1075100010B54FF0FF310446FFF7D2FF204610BDF3
:1075200010B504460068002801DBFEF791FE2046F6
:1075300010BD0C30FFF7F4BF2DE9F0439846036807
:1075400093B00D460024DB6A064617469847284646
:107550006B46224621460094FEF73AFD0546002878
:1075600063D1009B002B4BD05B69002B48D006A851
:10757000FFF7C6FB009B5C696378022B04D1211DD9
:1075800006A8FFF7FBF826E00A2B24D11122294692
:1075900001A801F029F8A368002B38D004F10803F2
:1075A0000DF1040C183418685968624603C2083398
:1075B000A3429446F7D1062301A90CA88DF81430F4
:1075C000FFF7ACFB0DF1340CBCE80F0007AC0FC4A7
:1075D000DCF80030237006A8FFF7B2FB80B13368F7
:1075E00007ADD3F82090124B0C930FCD0DAC0FC408
:1075F0002B6823703A4643460CA93046C8470546D7
:107600000098FEF7DDFC284613B0BDE8F083E36880
:10761000002BC3D14FF6FF70D4F81090FEF768FD31
:107620008145BBD104F11401AAE72546E8E700BF74
:107630001C980D00002240681146FEF7FDBE002296
:1076400040681146FEF718BF002240681146FEF759
:1076500023BF40680022FEF717BF4068002281F078
:107660000101FEF701BF002340681A461946FEF7E4
:10767000F3BE002240681146FEF7CEBE40680022ED
:107680000221FEF7D1BE002340681A46FEF7BCBEB9
:10769000024B04225A60024A1A607047C4E7032072
:1076A00038990D00002340681A46FEF7ADBE4068C9
:1076B00000220221FEF7B8BE002240681146FEF704
:1076C000ABBE002240681146FEF7B6BE00234068FC
:1076D0001A461946FEF7B8BE002340681A461946F6
:1076E000FEF7BABE40680021FEF7DEBE406800210A
:1076F000FEF7E2BE4068002281F00101FEF7B4BE51
:1077000040680022FEF7C0BE002240681146FEF726
:10771000C3BE002240681146FEF7AEBE2DE9F0431D
:10772000002495B016460D460746FFF7E9FA2146B4
:1077300018220EA8009400F057FF4023CDE90C3426
:1077400021466B460CAA3046FEF742FC0446002850
:107750004CD1024601216868FEF76EFE0221804688
:1077600022466868FEF768FE009E81462146002E8C
:107770003CD000293AD17368022B03D00A2B11D0D8
:10778000F669F4E7B8F1000F0AD0716906A8043170
:1077900007ADFFF705FB0FCD3C1D0FC42B68237011
:1077A0004146EDE7B9F1000F01D14946E8E77469B8
:1077B000102201A800F018FF06238DF8143001AD47
:1077C00004F108031834186859682A4603C20833BC
:1077D000A3421546F7D101A906A807ADFFF79EFA07
:1077E0000FCD3C1D0FC42B682370DEE70098FEF719
:1077F000E7FB384615B0BDE8F0830000024B034AB2
:107800001A6000225A607047CCE7032074990D007B
:10781000232813B502D9002002B010BDA0F10B033C
:10782000022B1AD8174C2178BFF35B8F11F001019E
:107830000BD120460191FCF73FFC019928B1124879
:10784000FEF7C6FE2046FCF73CFC0F4B1878FEF70F
:107850003FFD0028DFD10120DEE7012809D800F034
:10786000A7F80021007CFEF7DBFC80F00100C0B22D
:10787000D2E709380128EED8FFF77CFB007CFEF741
:1078800077FCF2E744E6032048E60320232838B5D6
:1078900004460D460AD8FF2908D0FFF7B9FF28B1E2
:1078A00029462046BDE83840FEF7A2BB38BD38B5B2
:1078B00004460D46FEF7A4FBFF2810D0062804D886
:1078C0004D2323FA00F0C30709D42046FFF7A0FF99
:1078D00028B129462046BDE83840FEF799BB38BD9F
:1078E00010B50446FEF78CFB031FDBB2012B08D951
:1078F0002046FFF78DFF20B12046BDE81040FEF77F
:107900008FBB002010BD0D2810B504469CBF0E345F
:10791000A4B22046FFF77CFF50B103212046FEF7BA
:107920005FFB032804D12046BDE81040FEF788BB6A
:10793000002010BD38B504460D46FFF769FFF0B1D1
:1079400004212046FEF74CFB042805D1A9B22046AD
:10795000BDE83840FEF76CBB02212046FEF740FB35
:1079600002280CD12046FEF74BFB012801D0042849
:1079700005D129462046BDE83840FEF769BB38BD31
:1079800038B50023202543801423044603808560F6
:1079900005610649284600F03AF804496060284627
:1079A00000F035F8E060204638BD00BFA8990D0012
:1079B00030B50F4D2978BFF35B8F11F0010487B00C
:1079C00013D12846FCF778FB78B101A8FFF7D8FF60
:1079D00001AA21460748FFF723FB2846FCF771FB65
:1079E000054A0649034800F00BF8024807B030BDCD
:1079F000D8E70320DCE7032074E50320C96F0D00FE
:107A00000B460146184600F0D3BDFCF748BBFCF717
:107A100044BB0000014900F0F9B800BFC4990D0053
:107A20007FB500241023CDE90234036800949E69D9
:107A30008DF8044015466B461268B0479DF8043037
:107A400003F00603062B03BF009B2B60012020469A
:107A500004B070BD0098904214BF0120062070470A
:107A600010B5034B0360044600F0CDF8204610BD6E
:107A7000049A0D0010B50446FFF7F2FF20460821D6
:107A8000FFF7C3FF204610BD2DE9F0411F46DDE999
:107A90000834DDF8188098450646154607D1079941
:107AA00000F0B4F818B165710020BDE8F0813946E6
:107AB000304600F0ABF80028F6D00123C4F800806F
:107AC0002571A371F0E738B515461C4600F09EF805
:107AD00020B10823E36006232560237138BD73B508
:107AE00005460C4601921E4600F090F850B9032E50
:107AF00008D82368019A5B692946204602B0BDE890
:107B00007040184702B070BD10B5034B03600446C7
:107B1000FFF7A6FF204610BD649A0D0010B504467D
:107B2000FFF7F2FF20460C21FFF76FFF204610BD44
:107B3000F7B5089F974205460E4614460AD0A86836
:107B400002680897156A31462246AC4603B0BDE884
:107B5000F04060471946019300F058F8019B002857
:107B6000EDD0062003B0F0BD2DE9F14F0D461946CA
:107B7000DDE90A4BDDE90CA681461746984600F080
:107B800045F890B1002D3460377109DB61198A45E1
:107B90000CBF06210121B171002001B0BDE8F08FBA
:107BA0000235F9D10123B371F6E7544506D15946A0
:107BB000484600F02BF808B17771EDE7D9F80800D6
:107BC0000368CDE90CA6CDE90A4BDC693A46434689
:107BD0002946A44601B0BDE8F04F60472DE9F041C9
:107BE00007460C4615461E46FFF76DFF48B9B868B4
:107BF00003689F692A4633462146BC46BDE8F041EA
:107C00006047BDE8F081704700207047814208B5A9
:107C10000ED0406803782A2B0CD049680B782A2BA9
:107C200008BF013100F00CFDB0FA80F0400908BD3A
:107C30000120FCE70020FAE781F0004102E000BFEC
:107C400083F0004330B54FEA41044FEA430594EA1C
:107C5000050F08BF90EA020F1FBF54EA000C55EA57
:107C6000020C7FEA645C7FEA655C00F0E2804FEA28
:107C70005454D4EB5555B8BF6D420CDD2C4480EA0A
:107C8000020281EA030382EA000083EA010180EA3A
:107C9000020281EA0303362D88BF30BD11F0004F88
:107CA0004FEA01314FF4801C4CEA113102D04042BE
:107CB00061EB410113F0004F4FEA03334CEA1333F9
:107CC00002D0524263EB430394EA050F00F0A78011
:107CD000A4F10104D5F1200E0DDB02FA0EFC22FA0C
:107CE00005F2801841F1000103FA0EF2801843FA00
:107CF00005F359410EE0A5F120050EF1200E012AF1
:107D000003FA0EFC28BF4CF0020C43FA05F3C0182E
:107D100051EBE37101F0004507D54FF0000EDCF1A7
:107D2000000C7EEB00006EEB0101B1F5801F1BD350
:107D3000B1F5001F0CD349085FEA30004FEA3C0C54
:107D400004F101044FEA445212F5800F80F09A804A
:107D5000BCF1004F08BF5FEA500C50F1000041EB4E
:107D6000045141EA050130BD5FEA4C0C404141EB52
:107D70000101013C28BFB1F5801FE9D291F0000F4D
:107D800004BF01460020B1FA81F308BF2033A3F1FC
:107D90000B03B3F120020CDA0C3208DD02F1140CF3
:107DA000C2F10C0201FA0CF021FA02F10CE002F12E
:107DB0001402D8BFC2F1200C01FA02F120FA0CFC27
:107DC000DCBF41EA0C019040E41AA2BF01EB045170
:107DD000294330BD6FEA04041F3C1CDA0C340EDC6E
:107DE00004F11404C4F1200220FA04F001FA02F3B1
:107DF00040EA030021FA04F345EA030130BDC4F16F
:107E00000C04C4F1200220FA02F001FA04F340EA63
:107E10000300294630BD21FA04F0294630BD94F014
:107E2000000F83F4801306BF81F480110134013DFB
:107E30004EE77FEA645C18BF7FEA655C29D094EA6C
:107E4000050F08BF90EA020F05D054EA000C04BFEA
:107E50001946104630BD91EA030F1EBF00210020D5
:107E600030BD5FEA545C05D14000494128BF41F074
:107E7000004130BD14F580043CBF01F5801130BDD8
:107E800001F0004545F0FE4141F470014FF0000063
:107E900030BD7FEA645C1ABF194610467FEA655C14
:107EA0001CBF0B46024650EA013406BF52EA0335B6
:107EB00091EA030F41F4002130BD00BF90F0000FA4
:107EC00004BF0021704730B54FF4806404F13204E0
:107ED0004FF000054FF0000150E700BF90F0000F99
:107EE00004BF0021704730B54FF4806404F13204C0
:107EF00010F0004548BF40424FF000013EE700BF90
:107F000042004FEAE2014FEA31014FEA02701FBF1F
:107F100012F07F4393F07F4F81F06051704732F051
:107F20007F4208BF704793F07F4F04BF41F40021A8
:107F3000704730B54FF4607401F0004521F0004106
:107F40001CE700BF50EA010208BF704730B54FF090
:107F500000050AE050EA010208BF704730B511F091
:107F6000004502D5404261EB41014FF4806404F1C9
:107F700032045FEA915C3FF4D8AE4FF003025FEA4F
:107F8000DC0C18BF03325FEADC0C18BF033202EBD3
:107F9000DC02C2F1200300FA03FC20FA02F001FA2D
:107FA00003FE40EA0E0021FA02F11444BDE600BFD0
:107FB00070B54FF0FF0C4CF4E06C1CEA11541DBF7F
:107FC0001CEA135594EA0C0F95EA0C0F00F0DEF84A
:107FD0002C4481EA030621EA4C5123EA4C5350EA2F
:107FE000013518BF52EA033541F4801143F4801380
:107FF00038D0A0FB02CE4FF00005E1FB02E506F011
:108000000042E0FB03E54FF00006E1FB03569CF065
:10801000000F18BF4EF0010EA4F1FF04B6F5007F6B
:1080200064F5407404D25FEA4E0E6D4146EB0606DD
:1080300042EAC62141EA55514FEAC52040EA5E5066
:108040004FEACE2EB4F1FD0C88BFBCF5E06F1ED810
:10805000BEF1004F08BF5FEA500E50F1000041EB47
:10806000045170BD06F0004646EA010140EA0200F4
:1080700081EA0301B4EB5C04C2BFD4EB0C0541EA16
:10808000045170BD41F480114FF0000E013C00F32B
:10809000AB8014F1360FDEBF002001F0004170BD4F
:1080A000C4F10004203C35DA0C341BDC04F1140468
:1080B000C4F1200500FA05F320FA04F001FA05F2F4
:1080C00040EA020001F0004221F0004110EBD370C1
:1080D00021FA04F642EB06015EEA430E08BF20EAED
:1080E000D37070BDC4F10C04C4F1200500FA04F390
:1080F00020FA05F001FA04F240EA020001F0004122
:1081000010EBD37041F100015EEA430E08BF20EA94
:10811000D37070BDC4F1200500FA05F24EEA020EDC
:1081200020FA04F301FA05F243EA020321FA04F00B
:1081300001F0004121FA04F220EA020000EBD370C2
:108140005EEA430E08BF20EAD37070BD94F0000FC2
:108150000FD101F00046400041EB010111F4801FF6
:1081600008BF013CF7D041EA060195F0000F18BFA7
:10817000704703F00046520043EB030313F4801FE3
:1081800008BF013DF7D043EA0603704794EA0C0F9D
:108190000CEA135518BF95EA0C0F0CD050EA4106B3
:1081A00018BF52EA4306D1D181EA030101F0004130
:1081B0004FF0000070BD50EA410606BF1046194658
:1081C00052EA430619D094EA0C0F02D150EA013664
:1081D00013D195EA0C0F05D152EA03361CBF1046A5
:1081E00019460AD181EA030101F0004141F0FE4144
:1081F00041F470014FF0000070BD41F0FE4141F4C8
:10820000780170BD70B54FF0FF0C4CF4E06C1CEAC7
:1082100011541DBF1CEA135594EA0C0F95EA0C0F7C
:1082200000F0A7F8A4EB050481EA030E52EA033537
:108230004FEA013100F088804FEA03334FF0805558
:1082400045EA131343EA12634FEA022245EA111585
:1082500045EA10654FEA00260EF000419D4208BF36
:10826000964244F1FD0404F5407402D25B084FEAE3
:108270003202B61A65EB03055B084FEA32024FF48F
:1082800080104FF4002CB6EB020E75EB030E22BFEC
:10829000B61A754640EA0C005B084FEA3202B6EBAC
:1082A000020E75EB030E22BFB61A754640EA5C005B
:1082B0005B084FEA3202B6EB020E75EB030E22BFEB
:1082C000B61A754640EA9C005B084FEA3202B6EBEC
:1082D000020E75EB030E22BFB61A754640EADC00AB
:1082E00055EA060E18D04FEA051545EA16754FEA0D
:1082F00006164FEAC30343EA52734FEAC2025FEA2B
:108300001C1CC0D111F4801F0BD141EA00014FF0B9
:1083100000004FF0004CB6E711F4801F04BF01438A
:108320000020B4F1FD0C88BFBCF5E06F3FF6AFAEA6
:10833000B5EB030C04BFB6EB020C5FEA500C50F136
:10834000000041EB045170BD0EF0004E4EEA1131B9
:1083500014EB5C04C2BFD4EB0C0541EA045170BDC0
:1083600041F480114FF0000E013C90E645EA060E04
:108370008DE60CEA135594EA0C0F08BF95EA0C0F32
:108380003FF43BAF94EA0C0F0AD150EA01347FF47A
:1083900034AF95EA0C0F7FF425AF104619462CE751
:1083A00095EA0C0F06D152EA03353FF4FDAE1046B4
:1083B000194622E750EA410618BF52EA43067FF405
:1083C000C5AE50EA41047FF40DAF52EA43057FF495
:1083D000EBAE12E74FF0FF3C06E000BF4FF0010CA0
:1083E00002E000BF4FF0010C4DF804CD4FEA410C04
:1083F0007FEA6C5C4FEA430C18BF7FEA6C5C1BD0D1
:1084000001B050EA410C0CBF52EA430C91EA030F51
:1084100002BF90EA020F0020704710F1000F91EAAE
:10842000030F58BF994208BF90422CBFD8176FEA7C
:10843000E37040F0010070474FEA410C7FEA6C5C4A
:1084400002D150EA013C07D14FEA430C7FEA6C5C51
:10845000D6D152EA033CD3D05DF8040B704700BF7D
:108460008446104662468C461946634600E000BFCB
:1084700001B5FFF7B7FF002848BF10F1000F01BD9D
:108480004DF808EDFFF7F4FF0CBF012000205DF868
:1084900008FB00BF4DF808EDFFF7EAFF34BF0120ED
:1084A00000205DF808FB00BF4DF808EDFFF7E0FF86
:1084B00094BF012000205DF808FB00BF4DF808EDD7
:1084C000FFF7CEFF94BF012000205DF808FB00BF3E
:1084D0004DF808EDFFF7C4FF34BF012000205DF820
:1084E00008FB00BF4FEA410C7FEA6C5C02D150EA06
:1084F000013C0AD14FEA430C7FEA6C5C02D152EA9C
:10850000033C02D14FF0000070474FF0010070476C
:108510004FEA410212F5001215D211D56FF47873AB
:10852000B3EB625212D94FEAC12343F0004343EA4E
:10853000505311F0004F23FA02F018BF4042704729
:108540004FF00000704750EA013005D111F00040B3
:1085500008BF6FF0004070474FF00000704700BF49
:108560004A0011D212F5001211D20DD56FF47873B2
:10857000B3EB62520ED44FEAC12343F0004343EA07
:10858000505323FA02F070474FF00000704750EA52
:10859000013002D14FF0FF3070474FF000007047BC
:1085A0000A22002100F0ECB80A22002100F0E8B80D
:1085B00010B5054C13462CB10A4601460220AFF314
:1085C000008010BD2046FCE7000000000A449142F4
:1085D00000F1FF3300D1704710B511F8014B03F8DB
:1085E000014F9142F9D110BD02440346934200D19C
:1085F000704703F8011BF9E738B50D4B1D68AB6BED
:1086000004467BB91820FDF76FFF0A4A0A4BA8639E
:10861000C0E90023094B83600B23838101220023DF
:10862000C0E90423AB6B00221C615A6138BD00BF56
:1086300010E503200E33CDAB34126DE6ECDE050001
:1086400010F8012B11F8013B012A28BF9A42F7D0FC
:10865000D01A7047034613F8012B002AFBD1181AD1
:108660000138704710B50139034632B111F8014F96
:1086700003F8014B013A002CF7D11A440021934230
:1086800000D110BD03F8011BF9E700002DE9F04708
:108690003A4E86468C4660461CF8014BA55D15F0A7
:1086A0000805F8D12D2C33D19CF800404FF001087B
:1086B00000F1020C002B5CD0102B0CD1302C0AD115
:1086C0009CF8000000F0DF0058284DD19CF80140D4
:1086D00010230CF1020C08F10047013F0026B7FB04
:1086E000F3F9304603FB197AA4F13005092D18D8A7
:1086F0002C46A34224DD751C07D081451DD301D132
:10870000A2451ADB00FB034001261CF8014BEBE7F6
:108710002B2C08BF9CF80040A84608BF00F1020CB3
:10872000C8E7A4F14105192D01D8373CE1E7A4F1D0
:108730006105192D04D8573CDBE74FF0FF36E4E71D
:10874000731C06D12223CEF80030384642B9BDE86A
:10875000F087B8F1000F00D04042002AF7D00EB1E8
:108760000CF1FF311160F2E73024002BB3D1082364
:10877000B1E7302CA4D00A23ADE700BF9E9A0D00CC
:1087800013460A46014602480068FFF77FBF00BF54
:1087900010E5032021400D005D400D0085400D00D7
:1087A00089400D0000000000256900256C69006902
:1087B0006E006F75740070776D00647700617700EC
:1087C00036594D4834464F643449536D59495441E4
:1087D00048337265746C6F5751794D5463434F4AF7
:1087E000002043002046004865792C20676F7420E4
:1087F000612070757368206E6F7469666963617457
:10880000696F6E2100507573682053656E74006245
:108810006C6E6B696E660076657200312E302E309C
:1088200000682D6265617400343500627566662DDE
:10883000696E0031303234006465760050617274C4
:1088400069636C65006275696C64004A756C202010
:108850003420323032312031323A35323A3532003A
:10886000000064656661756C7420004D5342004CD5
:108870005342003C53504953657474696E677320CA
:1088800064656661756C743E003C53504953657471
:1088900074696E67732025732575202573204D4FED
:1088A000444525753E0000000000003E5B4F5B3EE6
:1088B0003E6B4F6B3E1C3E7C3E1C183C7E3C181CA5
:1088C000577D571C1C5E7F5E1C00183C1800FFE79C
:1088D000C3E7FF0018241800FFE7DBE7FF30483A42
:1088E000060E2629792926407F050507407F0525A4
:1088F0003F5A3CE73C5A7F3E1C1C08081C1C3E7F2C
:1089000014227F22145F5F005F5F06097F017F00F2
:108910006689956A606060606094A2FFA294080412
:108920007E040810207E201008082A1C08081C2A33
:1089300008081E101010100C1E0C1E0C30383E388B
:1089400030060E3E0E06000000000000005F000032
:108950000007000700147F147F14242A7F2A1223A3
:108960001308646236495620500008070300001CB3
:108970002241000041221C002A1C7F1C2A08083EBC
:1089800008080080703000080808080800006060CF
:108990000020100804023E5149453E00427F40003D
:1089A00072494949462141494D331814127F102715
:1089B000454545393C4A4949314121110907364964
:1089C000494936464949291E000014000000403438
:1089D000000000081422411414141414004122143D
:1089E0000802015909063E415D594E7C1211127C64
:1089F0007F494949363E414141227F4141413E7FC5
:108A0000494949417F090909013E414151737F08A4
:108A100008087F00417F41002040413F017F08144A
:108A200022417F404040407F021C027F7F040810AB
:108A30007F3E4141413E7F090909063E4151215E89
:108A40007F09192946264949493203017F01033F1D
:108A50004040403F1F2040201F3F4038403F6314AC
:108A600008146303047804036159494D43007F41AE
:108A700041410204081020004141417F04020102EB
:108A80000440404040400003070800205454784010
:108A90007F284444383844444428384444287F38A4
:108AA0005454541800087E090218A4A49C787F0826
:108AB00004047800447D40002040403D007F1028A1
:108AC000440000417F40007C047804787C08040462
:108AD000783844444438FC1824241818242418FCFA
:108AE0007C08040408485454542404043F44243C9F
:108AF0004040207C1C2040201C3C4030403C44280E
:108B00001028444C9090907C4464544C44000836A7
:108B10004100000077000000413608000201020415
:108B2000023C2623263C1EA1A161123A4040207A35
:108B3000385454555921555579412254547842217D
:108B40005554784020545579400C1E5272123955B4
:108B500055555939545454593955545458000045B1
:108B60007C410002457D420001457C407D1211128E
:108B70007DF0282528F07C545545002054547C5421
:108B80007C0A097F4932494949323A4444443A32DD
:108B90004A4848303A4141217A3A42402078009D83
:108BA000A0A07D3D4242423D3D4040403D3C24FF2F
:108BB0002424487E4943662B2FFC2F2BFF0929F6DE
:108BC00020C0887E090320545479410000447D412F
:108BD0003048484A32384040227A007A0A0A727D88
:108BE0000D19317D2629292F2826292929263048A3
:108BF0004D4020380808080808080808382F10C811
:108C0000ACBA2F102834FA00007B000008142A1494
:108C10002222142A14085500550055AA55AA55AA0F
:108C2000FF55FF55FF000000FF00101010FF00145B
:108C30001414FF001010FF00FF1010F010F01414B7
:108C400014FC001414F700FF0000FF00FF1414F4DC
:108C500004FC141417101F10101F101F1414141FDD
:108C600000101010F0000000001F101010101F1056
:108C7000101010F010000000FF1010101010101055
:108C80001010FF10000000FF140000FF00FF0000A4
:108C90001F10170000FC04F414141710171414F418
:108CA00004F40000FF00F714141414141414F70053
:108CB000F7141414171410101F101F141414F414A4
:108CC0001010F010F000001F101F0000001F140013
:108CD0000000FC140000F010F01010FF10FF14143E
:108CE00014FF141010101F00000000F010FFFFFF11
:108CF000FFFFF0F0F0F0F0FFFFFF0000000000FFCA
:108D0000FF0F0F0F0F0F3844443844FC4A4A4A34CF
:108D10007E02020606027E027E02635549416338E6
:108D200044443C04407E201E2006027E020299A597
:108D3000E7A5991C2A492A1C4C7201724C304A4DF5
:108D40004D303048784830BC625A463D3E4949492A
:108D5000007E0101017E2A2A2A2A2A44445F4444D3
:108D600040514A444040444A51400000FF0103E062
:108D700080FF000008086B6B083612362436060F99
:108D8000090F06000018180000001010003040FF06
:108D90000101001F01011E00191D1712003C3C3C7F
:108DA0003C00000000000000000000000000000087
:108DB0000000000000000000A1530D00E5670D0059
:108DC000A5400D00A94D0D00AB4D0D00DD4D0D0072
:108DD000B94D0D00CB4D0D00ED4C0D00A94D0D0012
:108DE000D54F0D004F4F0D00F54D0D00334E0D00CA
:108DF0006D4E0D00B34E0D00514F0D00CF4E0D00C6
:108E00000000000000000000B1540D00D1540D001E
:108E1000A1530D00E5670D00B9560D00A94D0D00D9
:108E2000AB4D0D00DD4D0D00B94D0D00CB4D0D00CE
:108E3000ED4C0D00A94D0D00D54F0D0073580D00E0
:108E4000075E0D00B95D0D006D4E0D00B34E0D00B7
:108E5000514F0D00CF4E0D0000000000000000003B
:108E6000994C0D006D4C0D006F4C0D000000000082
:108E700000018000000000000000000003800000EE
:108E80000000000000000007C0000000000000001B
:108E9000000007C00000000000000000000FC0003C
:108EA00000000000000000001FE0000000000000C3
:108EB0000000001FE00000000000000000003FE094
:108EC0000000000000000000003FF0000000000073
:108ED000000000007FF0000000000000001FF87F8D
:108EE000F0000000000000003FFE7FF000000000E6
:108EF0000000003FFF7FF0000000000000001FFFA7
:108F0000FBE0000000000000000FFFF9FFC00000C0
:108F1000000000000FFFF9FFF8000000000000074C
:108F2000FFF1FFFF00000000000003FC73FFFF8063
:108F3000000000000001FE3FFFFF80000000000075
:108F400000FF1E0FFF000000000000007FFE1FFC5E
:108F5000000000000000003FFFFFF80000000000DC
:108F600000000FDFFFE0000000000000001F19FFFD
:108F7000C0000000000000003F3CFF0000000000B7
:108F80000000007E7CF800000000000000007FFE72
:108F90007C0000000000000000FFFFFC000000005B
:108FA00000000000FFFFFE0000000000000000FFC6
:108FB000FFFE0000000000000001FFEFFE000000C7
:108FC0000000000001FFCFFE0000000000000003D1
:108FD000FF07FE0000000000000003FC07FE000089
:108FE000000000000003F003FE000000000000008D
:108FF000018000FE000000000000000000007E0074
:109000000000000000000000003E00000000000022
:10901000000000000C000000000000078000FC00C1
:109020000003C0000000078001FC000003C0000036
:1090300000078001FC000003C0000000078001E081
:109040000000001E000000078001E00000001E007C
:109050007FE3F79FF9FDE7787BDFC0FFF7FFBFFDF8
:10906000FDFF787BDFC0FFF7FFBFFDFDFF787BDFF3
:10907000C0F0F787BC3DE1FF787BDE00F0F787BCEE
:109080003DE1F0787BDE0000F787803DE1E0787B12
:10909000DE007FF7879FFDE1E0787BDE00FFF7874A
:1090A000BFFDE1E0787BDE00F0F787BC3DE1E078D2
:1090B0007BDE00F0F787BC3DE1E0787BDE00F0F777
:1090C00087BC3DE1E0787BDE00FFF7FFBFFDE1E01C
:1090D0007FFBDFC0FFF7FFBFFDE1E07FFBDFC07C70
:1090E000F3F39F3DE1E03E7BCFC0000000000000B5
:1090F0000000000000FFFFFFFFFFFFFFFFFFFFC0BA
:10910000FFFFFFFFFD68DB111A31C0FFFFFFFFFD0E
:109110002B5AFB6AEFC0FFFFFFFFFD4B5B3B1A338F
:10912000C0FFFFFFFFFD6B5BDB6AFDC0000060005E
:1091300000000000000000000000000000E000004F
:10914000000000000000000000000001E00000003E
:109150000000000000000000000001F0000000001E
:1091600000000000000000000003F000000000000C
:10917000000000000000000007F0000000000000F8
:109180000000000000000007F800000000000000E0
:109190000000000000000FF800000003C0007E0087
:1091A0000001E0007F0FF800000003C000FE000097
:1091B00001E000FFEFF800000003C000FE00000126
:1091C000E000FFFFF800000003C000F00000000F07
:1091D000007FFE7FC0000003C000F00000000F0011
:1091E0003FFE7FF83FF1FBCFFCFEF3BC3DEFE01FFD
:1091F000FE7FFF7FFBFFDFFEFEFFBC3DEFE01FC6F3
:10920000FFFF7FFBFFDFFEFEFFBC3DEFE00FE3C78C
:10921000FE787BC3DE1EF0FFBC3DEF0007FF87FC3E
:10922000787BC3DE1EF0F83C3DEF0001FFFFF0004D
:109230007BC3C01EF0F03C3DEF0001F37FE03FFB3D
:10924000C3CFFEF0F03C3DEF0003E33F807FFBC364
:10925000DFFEF0F03C3DEF0007E73C00787BC3DE2B
:109260001EF0F03C3DEF0007FFBE00787BC3DE1E22
:10927000F0F03C3DEF0007FFFE00787BC3DE1EF000
:10928000F03C3DEF000FFFFE007FFBFFDFFEF0F044
:109290003FFDEFE00FFFFF007FFBFFDFFEF0F03F41
:1092A000FDEFE00FF9FF003E79F9CF9EF0F01F3D92
:1092B000E7E01FF1FF0000000000000000000000D8
:1092C000001F80FF007FFFFFFFFFFFFFFFFFFFE0AA
:1092D0001C007F007FFFFFFFFEB46D888D18E0004B
:1092E000001F007FFFFFFFFE95AD7DB577E000001A
:1092F0000F007FFFFFFFFEA5AD9D8D19E00000066A
:10930000007FFFFFFFFEB5ADEDB57EE00000000081
:10931000000000008D560D00A5560D00A1530D0054
:10932000E5670D00B9560D00A94D0D00AB4D0D00C0
:10933000DD4D0D00B94D0D00CB4D0D00ED4C0D0078
:10934000A94D0D00D54F0D0073580D00075E0D009F
:10935000B95D0D006D4E0D00B34E0D00514F0D0067
:10936000CF4E0D000080C0E0F0F8FCFE00010307C6
:109370000F1F3F7FAED580A8D300408D2000A1C82D
:10938000DB40A4A62EAFDA02818FDA1281DA0281E5
:109390002200FF2100000000915F0D00915F0D0091
:1093A000915F0D00915F0D00915F0D00915F0D00C9
:1093B000915F0D00915F0D00915F0D00915F0D00B9
:1093C000915F0D00915F0D00915F0D00915F0D00A9
:1093D000915F0D00915F0D00915F0D00915F0D0099
:1093E000915F0D00915F0D00915F0D00915F0D0089
:1093F000915F0D00915F0D00915F0D00915F0D0079
:10940000915F0D00915F0D00915F0D00915F0D0068
:10941000915F0D00915F0D00915F0D00915F0D0058
:10942000915F0D00915F0D00915F0D00915F0D0048
:10943000915F0D00915F0D00915F0D00915F0D0038
:10944000915F0D00915F0D00915F0D00915F0D0028
:10945000915F0D00915F0D00915F0D00915F0D0018
:10946000915F0D00915F0D00915F0D00915F0D0008
:10947000915F0D00915F0D00915F0D00915F0D00F8
:10948000915F0D00915F0D00915F0D00915F0D00E8
:10949000915F0D00915F0D00915F0D00915F0D00D8
:1094A000915F0D00915F0D00915F0D00915F0D00C8
:1094B000915F0D00915F0D00915F0D00915F0D00B8
:1094C000915F0D00915F0D00915F0D00915F0D00A8
:1094D000915F0D00915F0D00915F0D00915F0D0098
:1094E000915F0D00915F0D00915F0D00915F0D0088
:1094F000915F0D00915F0D00915F0D00915F0D0078
:10950000915F0D00915F0D00915F0D00915F0D0067
:10951000915F0D00915F0D00915F0D00915F0D0057
:10952000915F0D00915F0D00915F0D00915F0D0047
:10953000915F0D00915F0D00915F0D00915F0D0037
:10954000915F0D00915F0D00915F0D00915F0D0027
:10955000915F0D00915F0D00915F0D00915F0D0017
:10956000915F0D00915F0D00915F0D00915F0D0007
:10957000915F0D00915F0D00915F0D00915F0D00F7
:10958000915F0D00915F0D00915F0D00915F0D00E7
:10959000915F0D00915F0D00935F0D00935F0D00D3
:1095A000935F0D00935F0D00935F0D00935F0D00BF
:1095B000935F0D00935F0D00935F0D00935F0D00AF
:1095C000935F0D00935F0D00935F0D00935F0D009F
:1095D000935F0D00935F0D00935F0D00935F0D008F
:1095E000935F0D00935F0D00935F0D00935F0D007F
:1095F000935F0D00935F0D00935F0D00935F0D006F
:10960000935F0D00935F0D00935F0D00935F0D005E
:10961000935F0D00935F0D00935F0D00935F0D004E
:10962000935F0D00935F0D00935F0D00935F0D003E
:10963000935F0D00935F0D00935F0D00935F0D002E
:10964000935F0D00935F0D00935F0D00935F0D001E
:10965000935F0D00935F0D00935F0D00935F0D000E
:10966000935F0D00935F0D00935F0D00935F0D00FE
:10967000935F0D00935F0D00935F0D00935F0D00EE
:10968000935F0D00935F0D00935F0D00935F0D00DE
:10969000935F0D00935F0D00935F0D00935F0D00CE
:1096A000935F0D00935F0D00935F0D00935F0D00BE
:1096B000935F0D00935F0D00935F0D00935F0D00AE
:1096C000935F0D00935F0D00935F0D00935F0D009E
:1096D000935F0D00935F0D00935F0D00935F0D008E
:1096E000935F0D00935F0D00935F0D00935F0D007E
:1096F000935F0D00935F0D00935F0D00935F0D006E
:10970000935F0D00935F0D00935F0D00935F0D005D
:10971000935F0D00935F0D00935F0D00935F0D004D
:10972000935F0D00935F0D00935F0D00935F0D003D
:10973000935F0D00935F0D00935F0D00935F0D002D
:10974000935F0D00935F0D00935F0D00935F0D001D
:10975000935F0D00935F0D00935F0D00935F0D000D
:10976000935F0D00935F0D00935F0D00935F0D00FD
:10977000935F0D00935F0D00935F0D00935F0D00ED
:10978000935F0D00935F0D00935F0D00935F0D00DD
:10979000935F0D00935F0D000000000000000000CB
:1097A000A7650D009D650D0093650D0089650D0091
:1097B0007D650D0071650D00E5760D00ED760D00FF
:1097C00065650D005D650D0053650D0049650D0073
:1097D0001D770D0000081018202830380000000008
:1097E000000000006E616E00696E66006F766600B4
:1097F0002E006170700025592D256D2D256454258E
:10980000483A254D3A2553257A0061736374696D92
:109810006500000000000000000000009D6C0D00CD
:109820008D6C0D008F6C0D0000000000000000002A
:10983000C16D0D00296E0D00FF6D0D00E5670D0077
:10984000F16D0D00C36D0D00D36D0D00236E0D0085
:10985000E36D0D00BD6D0D00000000000000000074
:10986000CD6E0D00396F0D00116F0D00E5670D0015
:10987000E16E0D00FD6E0D00EF6E0D000B6F0D0023
:10988000CF6E0D00D36E0D00000000000000000040
:10989000C96F0D0013700D00EB6F0D00CB6F0D0045
:1098A000F36F0D00FB6F0D0003700D000B700D00CA
:1098B000776972696E670072656376206572726F90
:1098C00072203D2025640000000000000000000020
:1098D000F7700D0019710D0033750D0027710D0023
:1098E000F9700D000000000000000000A5710D00DF
:1098F000D9710D0075700D008F700D00C9730D00CA
:109900003B720D000D720D00B9700D00D3720D0089
:1099100039750D006F720D007D740D00BB700D0068
:10992000ED700D00A1700D002B710D00ED710D009B
:10993000000000000000000087760D007D760D001D
:1099400073760D0035760D00076B0D0067760D0000
:10995000E5760D00ED760D005B760D0053760D007B
:1099600049760D003F760D001D770D0000000000C8
:1099700000000000A5760D00AF760D00B9760D0051
:10998000C3760D00CD760D00D9760D00E5760D007D
:10999000ED760D00F5760D0001770D0009770D00CD
:1099A00013770D001D770D0000537431395F53702C
:1099B0005F6D616B655F7368617265645F74616739
:1099C00000000000049A0D00A9990D00649A0D0092
:1099D000D8990D00889A0D004E31305F5F6378781A
:1099E000616269763131375F5F636C6173735F7495
:1099F0007970655F696E666F4500000000000000C9
:109A0000CC990D00617A0D00757A0D00097C0D006E
:109A1000097C0D00DF7A0D00217A0D00C77A0D0058
:109A2000897A0D00557A0D00649A0D00349A0D0064
:109A3000CC990D004E31305F5F6378786162697652
:109A40003132305F5F73695F636C6173735F747928
:109A500070655F696E666F450000000000000000E1
:109A6000289A0D00097B0D001D7B0D00097C0D005F
:109A7000097C0D00DF7A0D00217A0D00DD7B0D00E1
:109A8000697B0D00317B0D00049A0D00909A0D004A
:109A9000537439747970655F696E666F00002020B9
:109AA000202020202020202828282828202020208E
:109AB000202020202020202020202020202088104E
:109AC00010101010101010101010101010100404AE
:109AD00004040404040404041010101010101041B5
